:100000000C942A000C943F000C943F000C943F0089
:100010000C943F000C943F000C943F000C943F0064
:100020000C943F000C943F000C943F000C943F0054
:100030000C943F000C943F000C943F000C943F0044
:100040000C943F000C943F000C943F000C943F0034
:100050000C943F0011241FBECFE5D4E0DEBFCDBF1E
:1000600010E0A0E6B0E0E4ECF3E002C005900D92F1
:10007000AC3AB107D9F70E94AB010C94E0010C94A3
:10008000000082B3806882BB00C082B38F7782BBDE
:100090000895CF93DF93D82F662321F082B3806237
:1000A00082BB03C082B38F7D82BB82B38F7B82BB56
:1000B00081B38F6081BBC2B3C07F8D2F82958F705B
:1000C0008C2B82BB0E944100DF70DC2BD2BB0E94D4
:1000D0004100CF60C2BBDF91CF910895882321F00A
:1000E00082B3806282BB03C082B38F7D82BB82B346
:1000F000806482BB81B3807F81BB82B3806882BB16
:1001000000C090B39295907F82B38F7782BB00C07E
:1001100082B3806882BB00C080B38F7022B32F7718
:1001200022BB892B089580E00E946E008823DCF3B7
:1001300083E090E00197F1F780E00E946E0008955F
:10014000CF93C82F0E94930060E08C2F0E9449003B
:10015000CF910895611104C080580E94A0000895B5
:1001600080540E94A000089581E00E94A00008959C
:10017000CF93C82F0E949300CA3049F4803410F402
:1001800080E401C080E080580E94A00004C061E0CB
:100190008C2F0E944900CF910895CF93DF93FC01EB
:1001A00003C00E94B800FE01EF01219680818111F9
:1001B000F8CFDF91CF9108951F93CF93DF93182F3E
:1001C00081B38F6081BB81B3806281BB81B3806466
:1001D00081BB81B3806881BB80E393E70197F1F72E
:1001E00082B3826082BB82B3816082BB0E94410085
:1001F00080EF93E20197F1F70E944100C5E7D0E05C
:10020000CE010197F1F70E944100CE010197F1F76D
:1002100082B38E7F82BB0E9441002197F1F788E272
:100220000E94A00088E00E94A0000E94B40086E026
:100230000E94A000812F0E94A000DF91CF911F910A
:1002400008958FE087BB88BB60E024C080E890E021
:10025000062E02C0959587950A94E2F787BB40E089
:1002600016C056B388E090E09C01042E02C035957C
:1002700027950A94E2F7852F90E082239323892B18
:1002800029F4E9E7F0E04083618308954F5F44304B
:1002900040F36F5F6430D0F2E9E7F0E083E0808301
:1002A00084E08183089560E670E00E94D701892B85
:1002B00039F40E94B4008BE790E00E94CD000895CD
:1002C0000E94B40086E890E00E94CD0008951F933C
:1002D000CF93DF9300D000D01F92CDB7DEB710E0F0
:1002E0002AC00E942101E9E7F0E08081218190E0AD
:1002F000FC01EE0FFF1FEE0FFF1FE80FF91FEB5978
:10030000FF4FE20FF11D8081873761F0E1E0F0E0FF
:10031000EC0FFD1FE10FF11D808361E080E00E9482
:10032000AA001F5F2FEF8FE794E02150804090409C
:10033000E1F700C000001430A1F61D82CE01019645
:100340000E9453010F900F900F900F900F90DF912C
:10035000CF911F91089580E181BB81E28FBD8AE03A
:100360008EBD80E890E099BD88BD8CE00E94DC00E5
:100370000E94B4001ABA1BBAD09B07C00E94B400F6
:1003800089E990E00E94CD0008C00E94B4008CE989
:1003900090E00E94CD000E9467012FEF8FEF90EE5A
:1003A000215080409040E1F700C00000E5CFFB0104
:1003B000DC018D91019080190110D9F3990B0895FA
:0403C000F894FFCFDF
:1003C40031323334004423302A0043393837004271
:1003D4003635340041333231770304596F75206761
:1003E4006F742069740050617373776F726420694D
:1003F4006E636F7272656374004E4F00456E746570
:0C040400722070617373776F72643A00AD
:00000001FF
