:100000000C942A000C9447000C9447000C94470071
:100010000C9447000C9447000C9447000C94470044
:100020000C9447000C9447000C9447000C94470034
:100030000C9447000C9447000C9447000C94470024
:100040000C9447000C9447000C9447000C94470014
:100050000C94470011241FBECFE5D4E0DEBFCDBF16
:1000600010E0A0E6B0E0E2EAF4E002C005900D92F4
:10007000A83DB107D9F720E0A8EDB0E001C01D927E
:10008000A23EB207E1F70E9418020C944F020C94B2
:10009000000082B3806882BB00C082B38F7782BBCE
:1000A0000895CF93DF93D82F662321F082B3806227
:1000B00082BB03C082B38F7D82BB82B38F7B82BB46
:1000C00081B38F6081BBC2B3C07F8D2F82958F704B
:1000D0008C2B82BB0E944900DF70DC2BD2BB0E94BC
:1000E0004900CF60C2BBDF91CF910895882321F0F2
:1000F00082B3806282BB03C082B38F7D82BB82B336
:10010000806482BB81B3807F81BB82B3806882BB05
:1001100000C090B39295907F82B38F7782BB00C06E
:1001200082B3806882BB00C080B38F7022B32F7708
:1001300022BB892B089580E00E9476008823DCF39F
:1001400083E090E00197F1F780E00E947600089547
:10015000CF93C82F0E949B0060E08C2F0E9451001B
:10016000CF910895611104C080580E94A80008959D
:1001700080540E94A800089581E00E94A80008957C
:10018000CF93C82F0E949B00CA3049F4803410F4EA
:1001900080E401C080E080580E94A80004C061E0B3
:1001A0008C2F0E945100CF910895CF93DF93FC01D3
:1001B00003C00E94C000FE01EF01219680818111E1
:1001C000F8CFDF91CF9108951F93CF93DF93182F2E
:1001D00081B38F6081BB81B3806281BB81B3806456
:1001E00081BB81B3806881BB80E393E70197F1F71E
:1001F00082B3826082BB82B3816082BB0E9449006D
:1002000080EF93E20197F1F70E944900C5E7D0E043
:10021000CE010197F1F70E944900CE010197F1F755
:1002200082B38E7F82BB0E9449002197F1F788E25A
:100230000E94A80088E00E94A8000E94BC0086E0FE
:100240000E94A800812F0E94A800DF91CF911F91EA
:1002500008958FE087BB88BB60E024C080E890E011
:10026000062E02C0959587950A94E2F787BB40E079
:1002700016C056B388E090E09C01042E02C035956C
:1002800027950A94E2F7852F90E082239323892B08
:1002900029F4E4E7F0E04083618308954F5F443040
:1002A00040F36F5F6430D0F2E4E7F0E083E08083F6
:1002B00084E08183089568ED70E00E944602892BF6
:1002C00049F40E94BC0086E790E00E94D50081E0DE
:1002D0008ABB08950E94BC0081E890E00E94D5008E
:1002E0001ABA0895CF93C0E02BC00E942901E4E719
:1002F000F0E08081218190E0FC01EE0FFF1FEE0F06
:10030000FF1FE80FF91FE05AFF4FE20FF11D808138
:10031000873769F0EC2FF0E0E352FF4F808361E014
:100320008C2F0E94B2008AE20E94C000CF5F2FEFA4
:100330008FE794E0215080409040E1F700C000003A
:10034000C43099F62FEF8FEF9CE22150804090400F
:10035000E1F700C000001092E1008DED90E00E94F6
:100360005B01CF910895CF938DE990E00E94D50075
:1003700061E083E00E94B2008DEA90E00E94D50027
:100380002FEF8FEF99E5215080409040E1F700C0BA
:1003900000000E94BC00C0E02BC00E942901E4E7DD
:1003A000F0E08081218190E0FC01EE0FFF1FEE0F55
:1003B000FF1FE80FF91FE05AFF4FE20FF11D808188
:1003C000873769F0EC2FF0E0E852FF4F808361E05F
:1003D0008C2F0E94B2008AE20E94C000CF5F2FEFF4
:1003E0008FE794E0215080409040E1F700C000008A
:1003F000C43099F62FEF8FEF9CE22150804090405F
:10040000E1F700C000000E94BC0060E081E00E94B3
:10041000B20087EB90E00E94D5002FEF8FE790E7C6
:10042000215080409040E1F700C00000CF91089536
:1004300080E181BB81E28FBD8AE08EBD80E890E0E3
:1004400099BD88BD8CE00E94E4000E94BC001ABAED
:100450001BBA0E94B301D09B07C00E94BC0085EC70
:1004600090E00E94D50008C00E94BC0088EC90E09B
:100470000E94D5000E9472012FEF8FEF90EE215065
:1004800080409040E1F700C00000E5CFFB01DC01B7
:100490008D91019080190110D9F3990B0895F8946A
:0204A000FFCF8C
:1004A2004423302A0043393837004236353400417C
:1004B200333231770304596F7520676F7420697482
:1004C200005061737320696E636F727265637400AA
:1004D20050617373206368616E67656400506C6578
:1004E2006173652073657420796F75720070617332
:1004F20073776F7264210050617373776F72642037
:1005020073657421004E4F00456E746572207061F0
:080512007373776F72643A0005
:00000001FF
