S00B00004B6F642E73726563FB
S11300000C942A000C9447000C9447000C9447006D
S11300100C9447000C9447000C9447000C94470040
S11300200C9447000C9447000C9447000C94470030
S11300300C9447000C9447000C9447000C94470020
S11300400C9447000C9447000C9447000C94470010
S11300500C94470011241FBECFE5D4E0DEBFCDBF12
S113006010E0A0E6B0E0E6EDF4E002C005900D92E9
S1130070A03EB107D9F720E0A0EEB0E001C01D9288
S1130080AE3EB207E1F70E943A020C9469020C9466
S1130090000082B3806882BB00C082B38F7782BBCA
S11300A00895CF93DF93D82F662321F082B3806223
S11300B082BB03C082B38F7D82BB82B38F7B82BB42
S11300C081B38F6081BBC2B3C07F8D2F82958F7047
S11300D08C2B82BB0E944900DF70DC2BD2BB0E94B8
S11300E04900CF60C2BBDF91CF910895882321F0EE
S11300F082B3806282BB03C082B38F7D82BB82B332
S1130100806482BB81B3807F81BB82B3806882BB01
S113011000C090B39295907F82B38F7782BB00C06A
S113012082B3806882BB00C080B38F7022B32F7704
S113013022BB892B089580E00E9476008823DCF39B
S113014083E090E00197F1F780E00E947600089543
S1130150CF93C82F0E949B0060E08C2F0E94510017
S1130160CF910895611104C080580E94A800089599
S113017080540E94A800089581E00E94A800089578
S1130180CF93C82F0E949B00CA3049F4803410F4E6
S113019080E401C080E080580E94A80004C061E0AF
S11301A08C2F0E945100CF910895CF93DF93FC01CF
S11301B003C00E94C000FE01EF01219680818111DD
S11301C0F8CFDF91CF9108951F93CF93DF93182F2A
S11301D081B38F6081BB81B3806281BB81B3806452
S11301E081BB81B3806881BB80E393E70197F1F71A
S11301F082B3826082BB82B3816082BB0E94490069
S113020080EF93E20197F1F70E944900C5E7D0E03F
S1130210CE010197F1F70E944900CE010197F1F751
S113022082B38E7F82BB0E9449002197F1F788E256
S11302300E94A80088E00E94A8000E94BC0086E0FA
S11302400E94A800812F0E94A800DF91CF911F91E6
S113025008958FE087BB88BB60E024C080E890E00D
S1130260062E02C0959587950A94E2F787BB40E075
S113027016C056B388E090E09C01042E02C0359568
S113028027950A94E2F7852F90E082239323892B04
S113029029F4E4E7F0E04083618308954F5F44303C
S11302A040F36F5F6430D0F2E4E7F0E083E08083F2
S11302B084E08183089560EE70E00E946002892BDF
S11302C049F40E94BC0086E790E00E94D50081E0DA
S11302D08ABB08950E94BC0082E890E00E94D50089
S11302E01ABA0895CF93DF930E94BC0081E990E08D
S11302F00E94D500C0E0D0E030C00E942901E4E7AC
S1130300F0E08081218190E0FC01EE0FFF1FEE0FF1
S1130310FF1FE80FF91FE05AFF4FE20FF11D808124
S1130320873779F0ED2FF0E0E951FF4F808361E0EA
S113033084E08D0F0E94B2008AE20E94C000DF5F59
S1130340C0E02FEF8FE794E0215080409040E1F728
S113035000C00000CF5FC23311F0D63071F62FEF2A
S11303608FEF9CE2215080409040E1F700C00000F4
S1130370D63018F40E94720106C01092ED0087EE88
S113038090E00E945B01DF91CF910895CF93DF93BA
S11303900E94BC008EEA90E00E94D50061E083E0F8
S11303A00E94B2008EEB90E00E94D5002FEF8FEFF9
S11303B099E5215080409040E1F700C000000E9480
S11303C0BC00C0E0D0E030C00E942901E4E7F0E0C6
S11303D08081218190E0FC01EE0FFF1FEE0FFF1FD3
S11303E0E80FF91FE05AFF4FE20FF11D80818737B4
S11303F079F0ED2FF0E0E052FF4F808361E084E07C
S11304008D0F0E94B2008AE20E94C000DF5FC0E04C
S11304102FEF8FE794E0215080409040E1F700C037
S11304200000CF5FC23311F0D63071F62FEF8FEF9B
S11304309CE2215080409040E1F700C00000D6309B
S113044018F40E94C60113C00E94BC0060E081E061
S11304500E94B20088EC90E00E94D5002FEF8FE755
S113046090E7215080409040E1F700C00000DF9108
S1130470CF91089580E181BB81E28FBD8AE08EBD7A
S113048080E890E099BD88BD8CE00E94E4001ABA2F
S11304901BBA0E94C601D09B07C00E94BC0086ED17
S11304A090E00E94D50002C00E9472012FEF8FEFEE
S11304B090EE215080409040E1F700C00000EBCF67
S11304C0FB01DC018D91019080190110D9F3990B86
S10904D00895F894FFCF2B
S11304D64423302A00433938370042363534004144
S11304E6333231770304596F7520676F742069744A
S11304F621005061737320696E636F727265637451
S113050600456E7465722070617373776F72643A16
S11305160050617373206368616E67656400506C94
S1130526656173652073657420796F7572007061F7
S11305367373776F7264210050617373776F72649B
S1130546207365742100556E6C6F636B65642100BE
S9030000FC
